:020000040800F2
:1000000078170020AD010008372400087B22000883
:1000100035240008F5040008B53C00080000000085
:10002000000000000000000000000000C5250008DE
:10003000A905000800000000C3250008C725000826
:10004000C7010008C7010008C7010008C701000870
:10005000C7010008C7010008C7010008C701000860
:10006000C7010008C7010008C7010008C701000850
:10007000C7010008C7010008C7010008C701000840
:10008000C7010008C7010008C10300080000000004
:10009000000000000000000000000000C701000890
:1000A000C7010008C7010008C7010008C701000810
:1000B000C701000869260008C7010008C701000839
:1000C000C7010008C7010008C7010008C7010008F0
:1000D000C7010008C7010008C701000800000000B0
:1000E000C7010008C7010008C701000800000000A0
:1000F000000000000000000000000000C701000830
:1001000000000000C7010008C7010008C70100087F
:1001100000000000000000000000000000000000DF
:10012000F9040008C7010008C7010008C70100085A
:10013000C7010008000000000000000000000000EF
:10014000000000000000000000000000392400084A
:10015000C7010008C7010008C7010008C70100085F
:10016000C7010008C70100080000000000000000EF
:10017000000000000000000000000000000000007F
:1001800000000000C701000800000000000000009F
:10019000C7010008C7010008DFF80CD000F08CF898
:1001A00000480047453D0008781700200648804772
:1001B00006480047FEE7FEE7FEE7FEE7FEE7FEE74C
:1001C000FEE7FEE7FEE7FEE74D260008990100087E
:1001D0002DE9F05F0546002092469B46884606467C
:1001E000814640241BE0284641464746224600F00F
:1001F00053F853465A46C01A914110D31146184637
:10020000224600F03AF82D1A67EB01084F462246C5
:100210000120002100F031F817EB00094E41201EAB
:10022000A4F10104DFDC484631462A464346BDE8D6
:10023000F09F40EA01039B0703D009E008C9121FA1
:1002400008C0042AFAD203E011F8013B00F8013B90
:10025000521EF9D27047D2B201E000F8012B491EBC
:10026000FBD270470022F6E710B513460A46044653
:100270001946FFF7F0FF204610BD202A04DB203A84
:1002800000FA02F1002070479140C2F1200320FAE9
:1002900003F3194390407047202A04DB203A21FAE7
:1002A00002F00021704721FA02F3D040C2F120028F
:1002B0009140084319467047064C074D06E0E06838
:1002C00040F0010394E8070098471034AC42F6D39D
:1002D000FFF766FF543E0008743E000870B58C18A6
:1002E00010F8015B15F0070301D110F8013B2A114A
:1002F00006D110F8012B03E010F8016B01F8016B37
:100300005B1EF9D12B0705D40023521E0DD401F832
:10031000013BFAE710F8013BCB1A921C03E013F8FB
:10032000015B01F8015B521EF9D5A142D8D3002030
:1003300070BD10B50146806B026C12F0500F05D0F5
:10034000026CD20626D500F01EFA10BD016C41F4F5
:100350000071016401688A6812F0405F17D1027E63
:10036000AAB9CA6A12F4700F02D08A6852050ED474
:100370004A6822F020024A60016C21F48071016415
:10038000016CC90403D4016C41F00101016400F067
:10039000C1F910BD806BC26CBDE810400846104723
:1003A00010B5806B40210164416C41F0040141644F
:1003B00000F0E9F910BD10B5806B00F0E3F910BD55
:1003C000014800F0E1B9000080010020464910B565
:1003D0004A6822F440324A604A6843681A434A60D5
:1003E00001684A6822F480724A6001684A680369B9
:1003F00042EA03224A6001684A6822F040724A6079
:1004000001684A6883681A434A6001688A6822F46E
:1004100000628A6001688A68C3681A438A60816AD8
:100420006FF07062D14201688A6822F070628A605F
:1004300001688A680CD0836A1A438A6001688A68F6
:1004400022F040528A6001688A68C36A1A4301E058
:1004500022F040528A6001688A6822F002028A60B3
:1004600001688A68037E42EA43028A6090F820109D
:10047000002901684A680FD042F400624A600168AE
:100480004A6822F460424A6001684A68174C436A2D
:1004900004EB43331A4301E022F400624A6001682E
:1004A000CA6A22F47002CA620168CA6A838B104C5D
:1004B00004EB03531A43CA6201688A6822F400728B
:1004C0008A6001688A6890F8303042EA43228A6084
:1004D00001688A6822F480628A6001688A684069DB
:1004E00042EA8020886010BD0023014000E0FFFF49
:1004F0000000F0FFFEE70000014800F0E3BA000052
:100500007008002001681823CAB2103AB2FBF3F257
:10051000054B6FF30901032A9B5CC36500D9091DD4
:1005200081650846704700003C3E000810B5014652
:1005300000208B698A6A4FF0C07453B1B3F5005F35
:1005400015D072B1012A0CD0022A0AD0032A09D18F
:1005500004E01AB1012A06D0022A03D1C96AC901EE
:1005600000D5012010BDC96AA142FAD010BD002AF1
:10057000F7D0012AF2D0022AF3D0032AF3D010BD1B
:1005800030B50468256825F480252560046863601B
:100590008368402B036803D099600068C26030BD57
:1005A0009A600068C16030BD7047704770470000B6
:1005B00078B50024009490F83C20012A19D001223B
:1005C00080F83C200A6807230568092A13D9EE68D9
:1005D0000A3A02EB420293409E43EE600B788A682F
:1005E0000A3B03EB43039A400368DD682A43DA6061
:1005F00010E0022078BD2E6902EB420293409E4338
:100600002E610B788A6803EB43039A4003681D69E7
:100610002A431A614A681F23072A13D205686E6BA2
:10062000521E02EB820293409E436E630A8893B28D
:100630000A79521E02EB820293400268556B2B43EB
:10064000536327E005680D2A12D22E6BD21F02EBEE
:10065000820293409E432E630B790A88DB1F92B27D
:1006600003EB83039A4003681D6B2A431A6311E06E
:10067000EE6A0D3A02EB820293409E43EE620B79E2
:100680000A880D3B92B203EB83039A400368DD6A4C
:100690002A43DA621B4B0568194A9D420AD10D684C
:1006A000122D07D1556825F400055560556845F4AD
:1006B0008005556005689D421DD1134D0B68AB4206
:1006C00001D0112B17D1536823F480035360536872
:1006D00043F4000353600968A9420CD10B490C4A4A
:1006E0000968B1FBF2F101EB8101490000E0491E0C
:1006F00000910029FBD180F83C40002078BD00002B
:10070000002301400020014012000010680000207A
:1007100040420F0070B50022174B1146104600BF33
:1007200053F83040224403EBC004401C6468C828DE
:100730002144F5DBC823B2FBF3F0B1FBF3F10F4A20
:100740000E4C0025C2E901016FF07E0202EB101091
:1007500040F3C7007F22A2EB1111607041F3C70183
:10076000A170E5704021064800F0FAFB08B1257041
:1007700070BD0120207070BD080200200000002024
:10078000001002407047704770B504460068016869
:100790004268C1F34001C2F3401251B34AB3216C25
:1007A000C90603D4216C41F400712164816811F001
:1007B000405F17D1217EA9B9C16A11F4700F02D030
:1007C000816849050ED4416821F020014160206C08
:1007D00020F480702064206CC00403D4206C40F0AE
:1007E000010020642046FFF795FF21686FF012009A
:1007F0000860206801684268C1F38001C2F3C0123A
:1008000089B382B3216CC90603D4216C41F4005131
:100810002164816811F4401F1ED1816B11F4401FC7
:1008200002D08168490517D44168490514D481680C
:1008300011F0405F10D1217E71B9416821F0800133
:100840004160206C20F480502064206CC00503D4EB
:10085000206C40F0010020642046FFF7A7FE2168CD
:100860006FF00C00086020680168426811F0010F09
:10087000C2F380120ED06AB10068C0070AD0206CA3
:1008800040F480302064204600F046F821686FF084
:1008900001000860206801684268C1F34011C2F39A
:1008A000806200290DD0002A0BD0616C41F002015A
:1008B00061646FF0200505602046FFF764FF206843
:1008C000056070BD70B504004FF0000503D0206CCA
:1008D000002610B107E0012070BD204600F01EF890
:1008E000666484F83C60206CC00610D4206C20F450
:1008F000885040F0020020642046FFF767FD6664E0
:10090000206C20F0020040F00100206400E001258E
:1009100084F83C60284670BD7047000070B586B012
:10092000064614216846FFF79DFC2149306888423D
:100930003CD120480025016841F4807101600068C5
:1009400000F4807005901B481438016841F00101E3
:1009500001600068694600F0010005900C200090DD
:100960000320CDE90105144800F030FA144C134877
:10097000C4E900050015A560C4E90350800060616A
:100980008000A0618011C4E907052046656200F07F
:1009900069F908B1FFF709FEB4630022114612207D
:1009A000A66300F055FB122000F044FB06B070BDBA
:1009B0000020014044380240000002401064024020
:1009C00070080020F8B50E4600210446009190F80A
:1009D0003C00012807D0012084F83C00206883688F
:1009E000DB0702D011E00220F8BD836843F0010369
:1009F00083602D482D4B0068B0FBF3F000EB400006
:100A000000E0401E00900028FBD120688368DB07CF
:100A100048D0236C40F20165AB4343F480732364F8
:100A20004068400505D5206C20F4005040F480500B
:100A30002064206CC00404D5606C20F00600606463
:100A400000E0616484F83C10A16B1A48184DC8633B
:100A5000A16B19480864A16B1848C86421686FF03D
:100A6000220008602068416841F080614160206890
:100A7000816841F4807181602168134632464C31AF
:100A8000A06B00F059F96868C006206802D00C49D4
:100A9000884207D1816811F0405F03D1816841F03D
:100AA000804181600020F8BD6800002040420F00B6
:100AB0000023014033030008B7030008A103000826
:100AC000002001402DE9F84304464FF00009CDF81D
:100AD000009063484FF41651A56D0068B0FBF1F724
:100AE0002E6894F85C10082000FA01F131420FD012
:100AF00021680A6852070BD50A6822F004020A60CE
:100B000094F85C108840A860606D40F0010060655A
:100B100094F85C104FF0010808FA01F0304208D058
:100B200021684969090604D5A860606D40F002009B
:100B3000606594F85C1004208840304208D0216839
:100B40000968890704D5A860606D40F004006065FD
:100B500094F85C1010208840304218D02168096851
:100B6000090714D5A86020680168490304D5006806
:100B7000000308D5A16C07E00168C90503D401682A
:100B800021F008010160216C09B12046884794F8E2
:100B90005C1020208840304231D021680968C906A5
:100BA0002DD5A86094F8350005282068016806D086
:100BB000490347D5006800031DD4616C1CE021F097
:100BC000160101602068416921F080014161206CBB
:100BD00008B9A06C20B12068016821F0080101600B
:100BE00094F85C103F208840A86084F8349084F822
:100BF0003580216D1FE0E16B09B120468847606DAB
:100C000000282BD0606DC00714D0052084F8350073
:100C10002068016821F0010101600098401C0090EB
:100C2000B84203D820680068C007F6D184F8349031
:100C300084F83580E16C002910D001B02046BDE871
:100C4000F04308470168C905D5D4016821F01001B7
:100C5000016084F8349084F83580CCE7BDE8F883EF
:100C6000680000202DE9F041044600F083F90646B3
:100C70005CB1002584F83450022084F835002068E7
:100C8000016821F0010101600DE00120BDE8F08163
:100C900000F070F9801B052805D92020606503202D
:100CA00084F83500F2E720680068C007F0D12268B8
:100CB000116820480140D4E901031843D4E9033600
:100CC0003343184363691843A3691843E36918431E
:100CD000236A18430843616A042903D1D4E90B133A
:100CE00019430843106020684069666A20F00701D4
:100CF00030460E43012704280CD1A06A0643E06A5F
:100D000040B12046FFF712FC20B14020606584F816
:100D10003570BAE7206846612046FFF7F3FB94F888
:100D20005C203F2191408160656584F8357000202A
:100D3000ACE700003F8010F02DE9F0410446866DDD
:100D400090F83400002501280DD0012084F83400EB
:100D500094F835700020012F07D084F83400022564
:100D60002846BDE8F0810220FBE7022784F83570B1
:100D700060652046FFF704FC94F85C103F20884033
:100D8000B0602068016841F016010160206C20B15C
:100D90002068016841F0080101602068016841F0A5
:100DA00001010160DCE7000070B5044600F0E2F8E4
:100DB0000546601C02D004480078044400F0DAF8CC
:100DC000401BA042FAD370BD5C0000202DE9F84F13
:100DD00000224FF0010803254FF00F0E0B6808FAB0
:100DE00002F42340A34271D14E68012E05D0022E99
:100DF00003D0112E01D0122E15D18668570005FAA6
:100E000007FC26EA0C06D1F80CC00CFA07FC4CEAE9
:100E1000060CC0F808C04668A6430C79C4F3001459
:100E2000944034434460C668570005FA07FC8C6858
:100E300026EA0C06BC403443C4604C68022C01D046
:100E4000122C13D1D40800EB8404A346D4F82090CC
:100E500054074FEAD46A0EFA0AF629EA06090E691F
:100E600006FA0AF646EA0906CBF8206004680E790D
:100E700024EA0C0406F00306BE40264306604C68D4
:100E8000E40056D52E4C266846F480462660246839
:100E900022F0030604F4804400942A4C3444A4460F
:100EA000D4F808489607370F0EFA07F6B443264ED3
:100EB000B04201D1002615E0244EB04201D10126F6
:100EC00010E0234EB04202D102260BE031E0214E69
:100ED000B04201D1032605E01F4EB04201D10426E5
:100EE00000E00726BE402643CCF808681B4E346855
:100EF0004F689C43FF0300D51C433460174E361DDA
:100F000034684F689C43BF0300D51C433460134EC4
:100F1000083634684F689C43FF0200D51C43346098
:100F20000E4E0C3634684F689C43BF0200D51C43FC
:100F30003460521C102AFFF451AFBDE8F88F000056
:100F400044380240003001400000024000040240EA
:100F500000080240000C024000100240003C01402A
:100F60000069084000D0012070470AB181617047D4
:100F70000904FBE701488068704700005C0000201E
:100F80000248816802781144816070475C0000204B
:100F90000B4810B5016841F400710160016841F42B
:100FA00080610160016841F480710160032000F0FC
:100FB0006FF8002000F006F800F024F8002010BDC3
:100FC000003C024070B50D4D04464FF47A7128780C
:100FD000B1FBF0F00A490968B1FBF0F000F08AFFBC
:100FE00048B9102C07D200222146501E00F030F8DC
:100FF00000206C6070BD012070BD00005C0000200E
:10100000680000200A4808B5016841F48041016089
:10101000006800F4804000900548001F016841F01E
:1010200080510160006800F08050009008BD000011
:1010300044380240002809DB00F01F0201219140E2
:101040004009800000F1E020C0F800117047000066
:10105000F0B40E4B1B680C46C3F30223C3F1070523
:10106000042D00D90425191D072901D2002300E011
:10107000DB1E012606FA05F1491E214099409E40DB
:10108000761E16403143F0BC02F015BE0CED00E0B8
:10109000064900F0070208684FF6FF03184040EACF
:1010A0000220034A10430860704700000CED00E086
:1010B0000000FA0570470068416200207047F0B5F3
:1010C0000368586A39B19C6A4FF4827600EB144485
:1010D00000204D1E0AE040EA024098620FE006EB55
:1010E0008007DF59401C04EB1744C0B2A842F6D376
:1010F00044EA02404FF4807202EB81015850002014
:10110000F0BDD0F8040401F016BEC1EBC10200EB43
:101110008202D0F80404926C01F069BDC1EBC102F7
:1011200000EB8202D0F80404D2F8082201F0C2BD1C
:10113000D0F8040401F001BE70B504460B0601F0BE
:101140000F00C0EBC00104EB81014FF001024FF032
:10115000000503D581F83D203C3103E081F8FD51C5
:1011600001F5FE71087094F8BC03012808D084F8DA
:10117000BC23206802F054F984F8BC53002070BDF1
:10118000022070BD70B5044601F00F006268904205
:1011900001D9012070BD0B0601F00F01C1EBC101A7
:1011A00004EB81014FF001024FF0000503D581F8F7
:1011B0003D203C3103E081F8FD5101F5FE718D7059
:1011C000087094F8BC03012808D084F8BC23206878
:1011D00002F002FB84F8BC53002070BD022070BDF9
:1011E0002DE9F04104460F0601F00F00C0EBC001ED
:1011F00004EB81014FF001064FF0000503D581F8A3
:101200003D603C3103E081F8FD5101F5FE7108704D
:101210008A60CB704A7802B1C880022B00D10D7170
:1012200094F8BC03012809D084F8BC63206802F05C
:1012300047F8284684F8BC53BDE8F0810220FBE75C
:1012400070B50C4601F00F05C5EBC50100EB81013F
:10125000C1F81032C1F808220023C1F8143281F815
:10126000FD3181F8FC51036901F5FE71012B00D1BC
:101270000A612207027C006803D002F005FB00200F
:1012800070BD02F0F1F9FAE770B504460D4601F0C1
:101290000F006168884201D9012070BD29064FF016
:1012A00000064FF0010207D5C0EBC00104EB81013D
:1012B00081F83D203C3107E0C5EBC50104EB81011D
:1012C00081F8FD6101F5FE718A70087094F8BC0325
:1012D000012807D084F8BC23206802F0A9FA280767
:1012E00002D007E0022070BD217C04F571722068F5
:1012F00002F046FA84F8BC63002070BD70B50C465D
:1013000001F00F05C5EBC50100EB81010B658A6497
:1013100000234B65012381F83D3001F83C5F0369F0
:10132000012B00D10A612207027C006803D002F081
:10133000ABFA002070BD02F097F9FAE72DE9FC5FE7
:1013400005680446284602F0C8FB00287ED12068C4
:1013500002F0EFFB002879D0206802F0EAFB80075A
:1013600004D52068416901F002014161206802F062
:10137000E0FB010304F571704FF0010A4FF0080B18
:10138000009075D50026206802F0B2FB0746DFF812
:1013900008946BE0F80767D0F1B2206802F0C1FB57
:1013A0008046C00707D005EB4611C1F808AB3146AF
:1013B000204601F047F85FEA087032D52068016CDA
:1013C00000EB46100191D0F8081B2269012A019A0E
:1013D0000FD0F24B9A4214D1090403D54FF40041C7
:1013E000C0F8081B204600F0C6FA206901280FD07B
:1013F00013E04A4505D9090403D54FF40041C0F86C
:10140000081B204600F0B7FA01984845EDD804E0E3
:1014100020680121009A02F0B3F905EB4611C1F8EA
:1014200008BB5FEAC86004D505EB46111020C1F87F
:10143000080B5FEA88600ED52069012804D1206876
:101440000121009A02F09CF9202100E0A1E105EBC6
:101450004610C0F8081B5FEA884005D505EB46102A
:101460004FF40051C0F8081B7F08761C002F91D163
:10147000206802F05EFB40034FF000095FD5206852
:1014800002F02FFB0746002657E0F80753D0F1B2D1
:10149000206802F034FB8046C00726D006F00F0219
:1014A0000AFA02F0D5F834288243C5F8342805EB4F
:1014B0004610C0F808A92069012807D1C6EBC6006C
:1014C00004EB8000D0E9112111448164F1B220467F
:1014D000FFF71BFE2069012807D136B9206D20B91E
:1014E00020680121009A02F04BF95FEA087003D5E9
:1014F00005EB4611C1F808B95FEAC86004D505EBF1
:1015000046111020C1F808095FEA486004D505EBD0
:1015100046104021C0F808195FEA887004D505EB31
:1015200046100221C0F808195FEA086003D5314669
:10153000204600F0F5FF7F08761C002FA5D120681B
:1015400002F0F7FA002811DAD5F8040820F00100BB
:10155000C5F8040894F8F40301282BD0204600F0C5
:10156000EEF92068416901F000414161206802F014
:10157000E0FA00050BD5D5F80808C00702D02046D0
:1015800000F022FA2068416901F40061416120689D
:1015900002F0CFFAC00461D5D5F8040820F00101AB
:1015A000C5F804181021206802F078FA00214FF6DF
:1015B0007F321AE084F8F49300212046FFF77AFD89
:1015C000CFE700BF05EB4110C0F80829D0F800397B
:1015D00023F40013C0F80039C0F8082BD0F8003B02
:1015E00023F40013C0F8003B491C60688842E9D826
:1015F000D5F81C0840F00111C5F81C18206B002814
:1016000028460DD0D0F8840840F00B00C5F88408B7
:10161000D5F8440840F00B012846C5F844180DE001
:10162000D0F8140842F22B010843C5F81408D5F885
:10163000100840F00B012846C5F81018D0F8000833
:1016400020F4FE61C5F80018217C2068009A02F0A1
:1016500097F82068416901F480514161206802F0E7
:1016600068FA800415D5206801F06AFE206802F04F
:1016700027FAE06000F05AFA0146227B206802F067
:1016800093FA204600F048F92068416901F40051BE
:101690004161206802F04DFAC00634D520688169A6
:1016A00021F0100181612F6A07F00F00C0EBC0002C
:1016B00004EB8006C7F3434006F5FE76022802D00D
:1016C000062811D01AE047F6F070074216D0C7F38B
:1016D0000A1217462846F16802F02FFAF0683844DB
:1016E000F060B069384408E008222846009902F00A
:1016F00024FAB069C7F30A110844B0612168886907
:1017000040F010008861206802F013FA000707D546
:10171000204600F018F92168486900F00800486187
:10172000206802F006FAC00208D50021204600F029
:1017300037F82168486900F480104861206802F099
:10174000F8F9800208D50021204600F02DF8216824
:10175000486900F400104861206802F0EAF940008E
:1017600007D52046FFF7CDFC2068416901F0804194
:101770004161206802F0DDF940070AD5206845681C
:10178000680702D52046FFF7D3FC2068416829434B
:101790004160BDE8FC9F00000A30544F0A31544FAD
:1017A000D0F8040401F014BBD0F8040401F012BB1B
:1017B0002DE9F0418AB0040005D094F8BD032668F5
:1017C000002520B108E001200AB0BDE8F08184F8CE
:1017D000BC53204600F05EF8032084F8BD03F06B94
:1017E000C00500D42561206801F038FF04F1100124
:1017F000282288466846FEF71CFD94E80F0001F099
:10180000B9FD0226C8BB0021206802F0A4F900201F
:1018100001270EE0C0EBC00104EB810181F83D70AF
:1018200001F83C0FC880CD708D60CD60401CC0B207
:101830004D6161688142EDD8002011E0C0EBC0012C
:1018400004EB810181F8FD5181F8FC0181F8FF5121
:10185000C1F80452C1F80852401CC0B2C1F810527D
:1018600061688142EAD8282241466846FEF7E1FCD9
:1018700094E80F0001F02CFE10B184F8BD63A2E7DC
:1018800084F8385084F8BD73206801F015FE0020FC
:101890009AE7000010B586B0044614216846FEF7AA
:1018A000E1FC2068B0F1A04F2FD119480021026857
:1018B00042F001020260006800F0010005904FF460
:1018C000C05000900220CDE90101032003900A20BE
:1018D000049069460F48FFF779FA0D48001D01682A
:1018E00041F0800101600A481430016841F48041F0
:1018F00001600068002200F48040059011464320FA
:10190000FFF7A6FB4320FFF795FB06B010BD0000D4
:10191000303802400000024070B50446C06801251E
:10192000022801D0FEF741FE2946D4F8040401F054
:10193000A2FAD4F80404BDE8704001F062BAD0F80D
:10194000040401F086BAD0F8040401F088BA10B596
:10195000044690F8BC0301280BD0012084F8BC0396
:1019600084F83810206802F00DF9002084F8BC03D8
:1019700010BD022010BDD0F8042400F5717110468E
:1019800001F085BA10B50446006894F8BC1301292B
:1019900006D0012184F8BC13A16A012902D008E015
:1019A000022010BDA169012903D0816B41F480316F
:1019B0008163206801F074FD206802F059F800206E
:1019C00084F8BC0310BD000010B50446D0F8040430
:1019D00001F09CFA2068D0F8001E41F00101C0F827
:1019E000001E206A002804D00248016841F0060168
:1019F000016010BD10ED00E02DE9F0470E46050036
:101A000065D0DFF81481D8F80000F7B200F00F00BD
:101A1000B04207D288F80070D8F8000000F00F003C
:101A2000B04254D128683D4C810712D5400703D5F8
:101A3000206840F4E05020602878000703D5206833
:101A400040F4604020602068A96820F0F00008435E
:101A500020602878C0072DD03049686808390128EF
:101A600012D0022813D0032811D009688907002951
:101A70002DDA216821F0030101432160FFF77AFA92
:101A8000814641F2883A0EE009688903EFE7096868
:101A90008901ECE7FFF76EFAA0EB0901514502D985
:101AA0000320BDE8F0872068696800F00C00B0EB07
:101AB000810FEFD1D8F80010404601F00F01B1427C
:101AC00007D90770006800F00F00B04201D0012074
:101AD000E7E72878400705D52068E96820F4E0505A
:101AE000084320602878000706D52068296920F47B
:101AF000604040EAC100206000F01EF82168084AFA
:101B0000C1F30311515CC8400649086006480068EB
:101B1000FFF758FA0020C4E7003C024008380240B2
:101B2000443E000868000020600000200148006872
:101B30007047000068000020154810B5006810F0DC
:101B40000C02144813D04110042A0FD0082A0ED1D9
:101B50000F4C241F2268236802F03F025B0207D566
:101B60002068C0F38810A0FB010106E0084610BD04
:101B70002168C1F38811A1FB00010023FEF728FBB7
:101B80002168C1F30141491C4900B0FBF1F010BDCF
:101B9000083802400024F4002DE9F84F040076D004
:101BA0002078DFF838A3CE4DC00749D0DAF800100E
:101BB0005046C1F38101012908D00068C0F38100BB
:101BC00002280AD1281D0068400206D52868800333
:101BD00036D560680028E2D032E06068B0F5803F1A
:101BE00010D0B0F5A02F286810D020F480302860E5
:101BF000286820F4802028606068A0B1FFF7BAF957
:101C000006460CE0286840F48030F4E740F4802079
:101C10002860F7E7FFF7AEF9801B642873D82868BF
:101C20008003F7D50CE0FFF7A5F9064605E000BFF5
:101C3000FFF7A0F9801B6428F0D828688003F7D448
:101C40002078DFF8A08280074FF000093ED5DAF84F
:101C50000010504611F00C0F09D00068C0F381004D
:101C600002280BD19D48001F0068400206D4286856
:101C7000800715D5E068012809D111E0E068B8B106
:101C80000120C8F80000FFF775F9064605E020E1DD
:101C9000FFF770F9801B0228C0D828688007F7D5A5
:101CA0002868216920F0F80040EAC10028600DE0B2
:101CB000C8F80090FFF75EF9064604E0FFF75AF90E
:101CC000801B02281FD828688007F7D420780007D7
:101CD00022D5824E844861696C3671B10121016060
:101CE000FFF748F9074604E0FFF744F9C01B022854
:101CF00009D830688007F7D50EE0C0F80090FFF7EC
:101D000039F9074605E082E0FFF734F9C01B0228E5
:101D10007DD830688007F7D42078400768D5DFF891
:101D2000BCB100270BF1380BDBF80000C0000BD46E
:101D3000DBF8001041F08051CBF80010DBF8000018
:101D4000012700F080500090684E3068C00510D424
:101D5000306840F480703060FFF70CF9009005E0C7
:101D6000FFF708F90099401A022850D83068C005DA
:101D7000F6D55A4EA068683601280FD0052830687D
:101D800010D020F001003060306820F00400306096
:101D9000A068B8B1FFF7EEF800900FE0306840F0AF
:101DA0000100F4E740F004003060F7E7FFF7E2F8E5
:101DB0000099411A41F28830814266D83068800724
:101DC000F4D50EE0FFF7D6F8009007E0FFF7D2F861
:101DD0000099411A41F28830814256D83068800714
:101DE000F4D42FB1DBF8001021F08051CBF80010B3
:101DF000A069D0B3DAF800205146C2F38102022A6A
:101E00004AD00228484607D0C8F8600000E03CE00D
:101E1000FFF7B0F804463BE04746C8F86000FFF71C
:101E2000A9F8064605E000BFFFF7A4F8801B0228CA
:101E30002BD828688001F7D4D4E907010843A16AA8
:101E40002B4A490802EB0141626A41EA82110843C8
:101E500094F82C1040EA01612048001F0160012025
:101E60003866FFF787F8044605E034E0FFF782F8AC
:101E7000001B022809D828688001F7D52BE000BF95
:101E8000FFF778F8001B022802D90320BDE8F88F7D
:101E900028688001F4D41EE00128F7D00868E269C0
:101EA00000F48001914214D1226A00F03F01914276
:101EB0000FD147F6C071626A0140914209D1A26A0E
:101EC00000F44031914204D1E16A00F07060884230
:101ED00001D00120DAE70020D8E7000008380240EE
:101EE0000038024000004742800E47420070004028
:101EF0000000FFFF10B5401EB0F1807F01D301202C
:101F000010BD4FF0E02460610F21601701F0D3FE97
:101F10000020A06107202061002010BD704770479D
:101F200070B590F83C20012A2CD0012480F83C4068
:101F3000022280F83D2003685A689D6822F07006EE
:101F40000A6832435A60104B02689A420ED0B2F1CE
:101F5000804F0BD00D4B9A4208D00D4B9A4205D0C2
:101F60000C4B9A4202D00C4B9A4204D1496825F09E
:101F700080031943916080F83D40002180F83C10B7
:101F8000084670BD022070BD000001400004004002
:101F900000080040000C00400040014010B5040063
:101FA00003D094F83D0010B107E0012010BD0020DF
:101FB00084F83C00204600F00DF8022084F83D0033
:101FC000211D206800F056FB012084F83D00002010
:101FD00010BD000008B500680B49884212D10B48BB
:101FE000016841F0020101600068002200F0020077
:101FF000009011461D20FFF72BF8BDE808401D207A
:10200000FFF718B808BD0000000400404038024047
:10201000022180F83D1001688A6802F00702062A52
:1020200003D00A6842F001020A60012180F83D10E5
:102030000020704770B5044690F83C00012817D086
:10204000012584F83C50022084F83D002068826815
:1020500022F0770222F47F4282600868502830D054
:102060000DDC20284DD005DC98B310283BD148E08A
:10207000022070BD302844D0402834D139E0602897
:1020800028D0702806D0B0F5805F2CD0B0F5005F66
:1020900029D10AE0CB68D1E90121206800F036FBA4
:1020A0002068816841F0770109E0CB68D1E901211E
:1020B000206800F02BFB2068816841F4804181603A
:1020C00011E0CA684968206800F032FB502120689E
:1020D00007E016E0CA684968206800F03AFB602112
:1020E000206800F01DFB84F83D50002084F83C007F
:1020F00070BDCA684968206800F01AFB402120685A
:10210000EFE7226801461046EBE7704770B50446DA
:10211000006801694FF00005C943890715D4C168FB
:10212000C943890711D4E91E016101202077206885
:1021300080698007204602D0FFF7E7FF04E000F047
:1021400098F8204600F096F8257720680169C94381
:10215000490717D4C168C943490713D46FF0040174
:102160000161022020772068806910F4407F2046BA
:1021700002D0FFF7CAFF04E000F07BF8204600F031
:1021800079F8257720680169C943090716D4C16821
:10219000C943090712D46FF00801016104202077B8
:1021A0002068C0698007204602D0FFF7AEFF04E038
:1021B00000F05FF8204600F05DF82577206801699F
:1021C000C943C90617D4C168C943C90613D46FF0FF
:1021D00010010161082020772068C06910F4407F59
:1021E000204602D0FFF791FF04E000F042F82046BD
:1021F00000F040F8257720680169C943C90708D174
:10220000C168C943C90704D1891E0161204600F095
:1022100032F820680169C943090609D4C168C94375
:10222000090605D46FF0800101612046FFF776FEB4
:1022300020680169C943490609D4C168C9434906F0
:1022400005D46FF040010161204600F015F82068C8
:102250000169C94389060BD4C168C943890607D4FB
:102260006FF0200101612046BDE87040FFF757BEC6
:1022700070BD7047704770477047FEE7F0B50023A8
:102280000A24302537261F4611E000BFB4EB107F2B
:1022900002D905EB107C01E006EB107C01F813C0BD
:1022A00001EB430C00015B1C8CF80170DBB2934224
:1022B000ECD3F0BD7FB5002415480094019402943E
:1022C00012490394C0E90014012505618460047675
:1022D00080F820402907C1620226C6614910C46007
:1022E000816280F830504561FEF7ECFA0096CDE946
:1022F000015469460648FEF75BF90320CDE9000664
:1023000069460348FEF754F97FBD000000200140F4
:102310008001002070B586B014216846FDF7A2FF49
:102320001C480024016841F010010160016801F0BF
:1023300010010591016841F080010160016801F020
:1023400080010591016841F004010160016801F01C
:1023500004010591016841F00101016000680E4E21
:1023600000F001000590002201213046FEF7FDFD3E
:10237000402001258DE8310069460848FEF726FD1A
:102380000095CDE90154694630460394FEF71EFDE1
:1023900006B070BD30380240000802400010024014
:1023A00010B586B00024124800940194029403945E
:1023B00004940E49059401604721C0E901142721C6
:1023C000C0E9031480218161FFF7E8FD4FF48050DC
:1023D000009069460648FFF72DFE2020CDE9040451
:1023E00004A90348FFF79CFD06B010BD000400409F
:1023F000C801002010B500220B490C4800F0D0FBAA
:1024000008B1FEF7D2F80A49084800F0A5FD08B166
:10241000FEF7CBF8054800F0F5FD002803D0BDE835
:102420001040FEF7C2B810BD0C000020D0080020FC
:1024300070000020FEE770470148FEF77FBF0000F4
:102440006C0B00202DE9F041044600680E46016C3B
:1024500000EB4615D5F8080B276920234FF40042FE
:10246000012F08D02C4FB9424FD1010449D500BFEC
:10247000C5F8082B4DE0DFF8A4C05FEA007E04F544
:10248000717711D5614503D9000401D5C5F8082B32
:102490002046FFF770FA3A460121206801F070F9F2
:1024A0000820C5F8080B34E05FEA806E02D5C5F855
:1024B000083B2EE010F0280F2BD1614501D9000414
:1024C000D6D4C6EBC60004EB8000D5F8102BD0F8AC
:1024D0000412C2F312028A1AC0F81422D0F8082299
:1024E0001144C0F80812F1B22046FEF717FE86B973
:1024F000D4F8100268B93A460121206801F040F989
:1025000007E0800601D5C5F8083BF1B22046FEF78A
:1025100005FE0020BDE8F0810A31544F0A30544FC7
:102520002DE9F84F0E46C1EBC60100EB8104814650
:102530000568D4E914103C34884202D90120BDE872
:10254000F88F081AA168814200D20846C01C87088B
:1025500005EB46181BE000BFA0EB010AA068504540
:1025600000D282460AF10300870899F81000009013
:102570001FFA8AF3F2B22846E16801F089FBE168AC
:1025800001EB0A00E060A16901EB0A00A061D8F844
:10259000180980B2B84205D3D4E90501814201D2BD
:1025A0000028D9D1D4E90501884208D806F00F01E6
:1025B00001208840D5F834188143C5F8341800202C
:1025C000BDE770477047FEF7DBBC000030B593B045
:1025D00030216846FDF746FE14210CA8FDF742FEA7
:1025E00018480025016841F080510160006800F042
:1025F000805011901448016841F440410160006826
:10260000022400F440401190012000900004019049
:102610008001CDE90640042008904820CDE9090456
:1026200003200B906846FFF7B7FA0CA90F2081E84A
:102630003100E002CDE90F0502210CA8FFF7DCF91B
:1026400013B030BD403802400070004005480168BA
:1026500041F47001016003494FF000608039086067
:102660007047000088ED00E00148FFF74FBD000013
:10267000C8010020F0B502681D4B1E4C9F031E4D83
:102680001E4E984207D0B84205D0A04203D0A842BF
:1026900001D0B04204D122F0700C4A6842EA0C0228
:1026A000984210D0B8420ED0A0420CD0A8420AD016
:1026B000B04208D0124CA04205D0124CA04202D029
:1026C000114CA04203D122F44074CA6822434C69E1
:1026D00022F08002224302608A68C2620A68826233
:1026E000984201D10969016301214161F0BD0000F7
:1026F000000001400004004000080040000C0040C1
:1027000000400140004401400048014010B5846889
:1027100042EA032224F47F440A432243826010BD2C
:10272000826822F070020A4342F00701816070471C
:1027300010B5036A046A24F001040462846924F079
:10274000F00444EA021423F00A020A43846102629C
:1027500010BD10B5036A23F0100303628369046A95
:1027600023F4704343EA023224F0A00343EA011148
:102770008261016210BD10B5D0F88C22526890477A
:10278000002010BD134610B50A46002100F030FBB2
:10279000002010BD134610B50A46002100F0BFFB13
:1027A000002010BD10B50446802100F09DFB20469E
:1027B000BDE81040002100F097BB10B505210023B3
:1027C000C0F86C121A46194600F012FB002010BD2A
:1027D00010B50223C261C0F86C32026213460A4689
:1027E000002100F09CFB002010BD10B50421002347
:1027F000C0F86C121A46194600F091FB002010BD7B
:1028000010B50A46024903A000F0E0F8004810BDE8
:10281000740F002048494420436F6E6669670000CA
:1028200012200880004870472C00002010B50A468E
:10283000024903A000F0CAF8004810BD740F002040
:1028400048494420496E7465726661636500000002
:1028500004200880004870472800002010B50A4670
:10286000024903A000F0B2F8004810BD740F002028
:102870004B415348414E4920494E445553545249C7
:102880004553000010B50A46024903A000F09EF827
:10289000004810BD740F00204B617368616E6920A1
:1028A0004A6F79537469636B0000000010B51A20F9
:1028B00008800A480168001D0468001D00680818A7
:1028C00009D008220649FFF7D9FC05490422103136
:1028D0002046FFF7D3FC0248801E10BD107AFF1F70
:1028E00042000020F8B5044648880D46010A082930
:1028F0004BD2DFE801F04A0409174A4A4048D4F8AD
:102900008812207C0A6832E0207C02260028D4F855
:102910008C0205D0C16A684688470146467041E08E
:10292000816AF8E7C0B206282FD2DFE800F003087A
:102930000D12171CD4F88812207C4A6817E0D4F8CE
:102940008812207C8A6812E0D4F88812207CCA6839
:102950000DE0D4F88812207C0A6908E0D4F88812C7
:10296000207C4A6903E0D4F88812207C8A69694691
:102970009047014616E0207C38B9D4F88C02416BB0
:1029800068468847F5E7207C20B129462046FFF7B6
:1029900009FFF8BDD4F88C02016B684688470146F0
:1029A00007204870BDF8000048B1EA8852B1824261
:1029B00000D90246ADF800202046FFF709FFE8885D
:1029C0000028E6D12046FFF710FFF8BD70B50023C0
:1029D00000281ED00446002502E06D1CEDB2641CE8
:1029E0002678002EF9D1022404EB450414801278D5
:1029F000CA545B1C0322CA5400245B1C06E0CA5460
:102A00005B1CDAB28C54521CD3B2401C0278002AF0
:102A1000F5D170BD01004FF0000004D0012901D0B4
:102A2000022901D00220704701207047D0F890029F
:102A3000002101730846704770B50446812100F0FB
:102A4000CDF80025E562D4F8900218B101F052F9F2
:102A5000C4F89052002070BD0A21018000487047E0
:102A6000200100202221018000487047A80000209A
:102A70002221018000487047CC00002022210180E3
:102A800000487047F000002010B5044604230322DC
:102A9000812100F0A1F90120E062102001F098F9F5
:102AA000C4F8900218B100210173084610BD02203D
:102AB00010BD10B5134690F87442D0F89022032C44
:102AC00007D1147B2CB9012414730A46812100F02C
:102AD00026FA002010BD000038B503460022D0F8C9
:102AE0009002ADF8002014460A7812F0600216D069
:102AF000202A4AD14A78022A0ED0032A06D00A2A6E
:102B000006D00B2A41D18978016042E001222BE0F6
:102B10004988090A41603CE00122011D25E04A780C
:102B200032B1062A0BD00A2A23D00B2A2DD128E055
:102B300093F87402032828D10222694615E04888D8
:102B40002222B2EB102F05D1CA884A2A00D94A2284
:102B5000124809E02122B2EB102F16D10F48CA8883
:102B60001838092A00D9092201461846FFF730FE15
:102B70000FE093F87422032A07D1012200F1080123
:102B8000F3E793F87422032A05D01846FFF70AFEEC
:102B90000224204638BD89788160FAE72C010020A4
:102BA00010B580B1D0F88C3213B10023C0F88C324C
:102BB00009B1C0F88812012180F87412027000F087
:102BC000C7F8002010BD022010BD10B5D0F8980243
:102BD000FEF7D8FABDE81040FFF71CBF10B5D0F8DB
:102BE0009802FEF7A9FABDE81040FFF713BF2DE9E0
:102BF000F0411746044651B1D4F88C0242691AB12B
:102C000094F87402032851D00220BDE8F081D4F872
:102C10006C32002504F11400022B03D0042B3AD0AF
:102C2000C3B33CE0D0E903639E4207D9F11AC16007
:102C30008AB239462046FFF7ADFD12E08068B0FB4E
:102C4000F3F103FB110199B9984211D3D4F8701232
:102C500088420DD2002211462046FFF79BFDC4F8A2
:102C6000705200231A461946204600F0C1F816E0BB
:102C7000D4F88C02C16829B194F87402032801D1F8
:102C8000204688478021204600F02EF92046FFF795
:102C900094FD04E0FFE78021204600F025F994F838
:102CA0007802012804D184F8785201E02046904748
:102CB0000020AAE770B51546044649B1D4F88C0245
:102CC00082691AB194F87402032830D0022070BDD2
:102CD000D4F86C1204F5A070032902D005291ED087
:102CE00027E0D0E903218A420BD9531AC360084672
:102CF000834200D303469AB229462046FFF742FD9D
:102D000017E0D4F88C02016929B194F87402032801
:102D100001D1204688472046FFF767FD09E00020E3
:102D20000146C4F86C02204600F0DEF801E02046BF
:102D30009047002070BD0020704710B5012180F839
:102D40007412D0F88C22017952689047002010BD8F
:102D500010B5017839BB15490222C1F80404C0F846
:102D600098124FF0A0400860042048600020C1E99C
:102D70000320C1E9062008624862C8620863084669
:102D8000FEF716FD08B1FDF710FC80210748FEF79D
:102D900092F9402200210548FEF791F98022012195
:102DA0000248FEF78CF9002010BD00006C0B0020DB
:102DB0000A0601F07F01D0F89802C1EBC10100EBD7
:102DC000810002D590F83E00704790F8FE017047F0
:102DD000002070470020704710B51C461346D0F8FD
:102DE00098022246FEF7FCF9BDE81040FFF712BE3C
:102DF00010B5D0F89802FEF723FABDE81040FFF7AF
:102E000009BE70B50022044640231146FFF7E4FFD7
:102E100040260125C4F85061334600228021204617
:102E2000C4F84451FFF7D8FF6662A56184F8745274
:102E30000020C4F86C026060C4F87C02D4F89002F0
:102E400028B1D4F88C020021426820469047002027
:102E500070BD90F8751280F874120020704710B59C
:102E600090F87412032904D1D0F88C12C96901B109
:102E70008847002010BD01740020704710B5D0F8BD
:102E80009802FEF764FDBDE81040FFF7C3BD70B5C2
:102E9000044600F52070054600F04AF80120C4F809
:102EA0006C02B4F88602C4F8700294F8800210F044
:102EB0001F010AD001290DD0022910D000F0800195
:102EC000204600F011F8002070BD2946204600F091
:102ED0009EF8F8E72946204600F0CAF9F3E72946AC
:102EE000204600F01DF9EEE710B5D0F89802FEF785
:102EF000CBF9BDE81040FFF78DBD10B5D0F89802B2
:102F0000FEF740FDBDE81040FFF784BD90F8741255
:102F100080F87512042180F874120020704710B5F3
:102F2000D0F89802FEF7EAF9BDE81040FFF772BD4D
:102F30000A7802704A7842708A78CB7802EB0322D2
:102F400042800A794B7902EB032282808A79C9791F
:102F500002EB0121C18070470246002011B1C2F886
:102F60008C1270470220704710B5D0F88C220224D2
:102F70001AB11268904700B90024204610BD000025
:102F800070B50E461E4D897804462970012931D846
:102F900094F8740202280BD003280FD03146204643
:102FA000FFF700FC29782046BDE87040FFF7E3BB3F
:102FB000D9B10320616084F8740209E071B16068DE
:102FC000884212D0C1B22046FFF7D5FB2978616054
:102FD0002046FFF7C9FF02280CD006E0022084F843
:102FE000740220466160FFF7C6FB2046BDE87040D2
:102FF000FFF7FBBB31462046BDE87040FFF7D2BB70
:103000006C00002010B5FFF778FF002010BD2DE9FF
:10301000F0410A78002612F0600208D0202A01D080
:10302000402A70D1D0F88C22926890476DE04B789E
:10303000002201250A2B66D2DFE803F0405D6557C8
:10304000650805652C29FFF74DFC5EE0044688887D
:10305000D8B9C888C8B94888802816D200F07F0738
:1030600094F87402032810D084F87672394620460A
:10307000FFF704FF2046FFF7B8FB1FB1022084F8DA
:10308000740242E084F874523FE020463BE0FFF7D0
:1030900077FF3AE0CB88012B35D190F87432012BC1
:1030A00004D0022B02D0032B2DD104E08260012238
:1030B00000F1080116E00122011D13E090F87422CE
:1030C000012A03D0022A01D0032A1CD1CA88022A6D
:1030D00019D1C560D0F87C1209B10321C160022268
:1030E00000F10C01FFF774FB0FE0498801290CD1B6
:1030F000C0F87C5211E090F87432012B08D0022BFA
:1031000006D0032B04D0FFF74DFB3046BDE8F0811D
:1031100049880129F9D1C0F87C22FFF766FBF4E762
:103120002DE9F0410A46044610780027097910F08D
:1031300060030AD0202B01D0402B50D1D4F88C0250
:1031400011468368204698478FE0C0F3411001285C
:1031500006D05078D0B301282AD003283FD107E009
:10316000D4F88C02114683682046BDE8F041184728
:1031700094F87402022802D0032872D10AE071B3D5
:1031800080296ED02046FFF7AFFE80212046FFF752
:10319000ABFE6AE0508838B931B1802904D0D088BC
:1031A00010B92046FFF7A0FE2046FFF71EFB5CE0AB
:1031B00094F874020228E2D0032852D1508898BBB8
:1031C0004806F1D02046FFF700FDEDE7FFE794F851
:1031D00074020026022803D0032842D112E040E006
:1031E00009B180293DD1080601F07F0000EB800085
:1031F00004EB800101D5143101E001F5A071022238
:103200000E602AE0080601F00F0000EB800004EBDE
:1032100080000AD5806920B301F07F0000EB8000B8
:1032200004EB800514350BE01FE0D0F84401C0B179
:1032300001F07F0000EB800004EB800505F5A07530
:1032400041B1802906D02046FFF7B2FD10B1012020
:10325000286000E02E60022229462046FFF7B8FAD7
:1032600003E011462046FFF79DFA3846BDE8F0819D
:1032700070B5054608780C4610F0600003D0202891
:1032800001D0402816D195F87402012803D00228F5
:1032900001D003280ED1207901280BD8D5F88C0253
:1032A000826828469047E188014306D12846FFF707
:1032B0009CFA02E02846FFF775FA002070BD000076
:1032C00070B50A78012302F00F054E78AB401B4C15
:1032D000D0F81C58012E17D045EA0343C0F81C381B
:1032E00000EB4210D0F8002B12040BD4D0F8002BC6
:1032F0000B89C978C3F30A031A4344EA81410A439C
:10330000C0F8002B002070BD9BB21D43C0F81C58B4
:1033100000EB4210D0F800391B04F3D4D0F8003988
:103320000D89C978C5F30A0589042B4341EA825106
:103330000B432343C0F80039E4E70000008000108D
:10334000D0F800196FF30A01C0F80019D0F8081876
:10335000C1F34101022905D1D0F8001941F0030160
:10336000C0F80019D0F8041841F48071C0F80418AE
:103370000020704770B5044606990A9E049D0D987A
:10338000012916D0E06840F04000E060204600F0DF
:103390002BF8A16B1EB321F48031A163012D07D15D
:1033A000A16841F00601A160A16841F02001A1607F
:1033B00070BDA16B21F48031A163E168094A11401D
:1033C000E160E16821F44011E160012803D1E06887
:1033D00040F48010E060204600F006F8DEE741F49B
:1033E0008031DAE7BFFFBDFF01220C4902E0521C29
:1033F0008A420BD80369002BF9DA026942F0010214
:103400000261012204E0521C8A4201D90320704764
:103410000369DB07F7D1002070470000400D03006F
:1034200030B50B784D78012203F00F0402FA04F452
:10343000012DD0F83C5817D025EA0444C0F83C4888
:10344000D0F81C48097801F00F018A4024EA0241B3
:10345000C0F81C1800EB4310D0F8001B0E4A1140B6
:10346000C0F8001B002030BDA4B2A543C0F83C58F2
:10347000D0F81C48097801F00F018A4091B28C43C2
:10348000C0F81C4800EB4310D0F80019034A114063
:10349000C0F80019E6E700000078F3EF007833EC9D
:1034A00010B5D0F8041821F00201C0F80418032068
:1034B000FDF77AFC002010BD10B5D0F8041841F0DB
:1034C0000201C0F804180320FDF76EFC002010BDB7
:1034D0002DE9F04F0025DDE90BCB0E460446DDF863
:1034E0004090099F2846294604EB8002C2F8041147
:1034F000401C0F28F8D3B9F1000F204618D00068FF
:1035000020F400122260A06B40F40022A26308465F
:103510008846C4F8000ED4F800182046C4F80018F5
:10352000BCF1010F10D0D0F8001841F0030110E0F9
:10353000806B40F40012A263A06B20F40022A2630F
:10354000A06B20F48022E1E7D0F800180BB141F025
:103550000101C0F80018102100F0A0FA00B1012507
:10356000204600F08BFA00B101254046C4F81088CF
:10357000C4F81488C4F81C8800214FF000634FF091
:1035800090484FF67F3A14E004EB4112D2F800C99C
:10359000BCF1000F06DA11B1C2F8008904E0C4F8EA
:1035A000003901E0C2F80009C2F81009C2F808A900
:1035B000491C8E42E8D8002115E000BF04EB4112FF
:1035C000D2F800CBBCF1000F06DA11B1C2F8008BC3
:1035D00004E0C4F8003B01E0C2F8000BC2F8100B95
:1035E000C2F808AB491C8E42E8D8D4F8101821F470
:1035F00080722146C4F81028012F08D1134AC1F85F
:103600003028D1F83018124A1143C4F83018A0619C
:103610006FF0804060611FB9A06940F01000A061A8
:10362000A0690C490843A061BBF1000F03D0A06959
:1036300040F00800A061B9F1010F03D1A06906496B
:103640000843A0612846BDE8F08F0000000180001B
:103650000300010000383C8004000040816821F034
:10366000010181600020704770B50D784E78434CA1
:10367000EBB200EB4313012E1FD0D3F8100B6FF306
:103680001200C3F8100BD3F8100B2040C3F8100B36
:10369000486908B188684861D3F8100B40F40020ED
:1036A000C3F8100BD3F8100B8C68C4F3120420433A
:1036B000C3F8100B012A55D058E04E69002ED3F8FC
:1036C000106932D06FF31206C3F81069D3F810698D
:1036D0002640C3F810694E698C68A64200D94C6137
:1036E000D3F8104944F40024C3F81049D3F8104922
:1036F0004E69C6F312063443C3F81049012A22D09A
:1037000000EB4512D2F8003943F00443C2F8003907
:103710004A6932B3D0F83428097801F00F03012147
:1037200099400A43C0F8342826E02640C3F81069BF
:10373000D3F8104944F40024C3F81049D3F81049D1
:103740006FF31204D8E7096919B100EB4512C2F80A
:10375000141900EB4510D0F8001941F00441C0F8ED
:10376000001909E0C86808B1C3F8140BD3F8000BBE
:1037700040F00440C3F8000B002070BDFFFF07E0DD
:1037800010B5036C134CA34203D9D0F8003B002BB7
:103790001EDB0023C0F8103BD0F8103B43F400239D
:1037A000C0F8103BD0F8103B43F01803C0F8103BB2
:1037B000D0F8103B43F0C043C0F8103B012907D1BB
:1037C000C0F8142BD0F8001B41F08021C0F8001B7A
:1037D000002010BD0A30544F4A780B78012A00EBC4
:1037E00043100BD0D0F8002B22F40012C0F8002BAD
:1037F000C978032914D0022912D017E0D0F8002983
:1038000022F40012C0F80029C978032901D0022946
:103810000CD1D0F8001941F08051C0F8001905E032
:10382000D0F8001B41F08051C0F8001B0020704709
:103830000A784B78D1B200EB4110012B12D0D0F8AE
:10384000001B002906DB2AB1D0F8001B21F08041C3
:10385000C0F8001BD0F8001B41F40011C0F8001B99
:1038600000207047D0F80019002906DB2AB1D0F8F3
:10387000001921F08041C0F80019D0F8001941F476
:103880000011C0F80019EBE7F8B50C784F78774DC8
:10389000E3B26FF0604600EB4313012F26D0D3F85C
:1038A000104B6FF31204C3F8104BD3F8104B2C409D
:1038B000C3F8104B4C69002C74D08D682C44641EE6
:1038C000B4FBF5F4D3F8105BA4B206EAC446354362
:1038D000C3F8105BD3F8105B8E686643C6F312041E
:1038E0002543C3F8105B012A71D0A6E04F691FB3CE
:1038F000D3F810796FF31207C3F81079D3F8107961
:103900002F40C3F810794F698D682F447F1EB7FB95
:10391000F5F506EAC545D3F810693543C3F81059E3
:10392000D3F810594E69C6F312063543C3F810593F
:10393000CD78012D10D01BE0D3F810692E40C3F8CC
:103940001069D3F8105945F40025C3F81059D3F87D
:1039500010596FF3120509E0D3F8105925F0C0454E
:10396000C3F81059D3F8105945F00055C3F8105951
:10397000012A18D000EB4413D3F8004944F0044462
:10398000C3F80049CC78012C2FD04A6962B3D0F833
:103990003428097801F00F03012199400A43C0F847
:1039A000342860E036E00A691AB100EB4413C3F82A
:1039B0001429C97801290FD1D0F80818C90500EBDE
:1039C0004411D1F8002903D442F0005202E030E063
:1039D00042F08052C1F8002900EB4410D0F80019E1
:1039E00041F00441C0F800193DE0D0F80848E40572
:1039F000D3F8004902D444F0005401E044F080546C
:103A0000C3F8004900928A8A93B20A78C96800F024
:103A10003FF928E0D3F8104B8D68C5F312052C430D
:103A2000C3F8104BD3F8104B44F40024C3F8104BE8
:103A300059E7CA680AB1C3F8142BC97801290CD117
:103A4000D0F80808C005D3F8000B02D440F00050AD
:103A500001E040F08050C3F8000BD3F8000B40F0B9
:103A60000440C3F8000B0020F8BD0000FFFF07E092
:103A7000816841F00101816000207047002110221F
:103A80000261054A491C914201D90320704703692C
:103A9000DB06F7D400207047400D030000222023EE
:103AA00043EA811101610549521C8A4201D9032070
:103AB000704703699B06F7D400207047400D030050
:103AC000D0F8080810F0060004D0022803D0062819
:103AD00001D00F20704702207047406900F00100BC
:103AE0007047D0F81818D0F81C08084080B270470A
:103AF000D0F81818D0F81C080840000C704710B512
:103B0000D0F81038D0F8342801F00F0400EB411041
:103B1000E24002F00102D0F8080943EAC212104064
:103B200010BD00EB4111D1F8081BD0F81408084073
:103B300070474169806908407047D21C10B59308EE
:103B4000002200F5805002E00468521C10C19A4225
:103B5000FAD3084610BD10B5C26822F0C042C26058
:103B6000012902D029B1012010BDC16841F00051E6
:103B700002E0C16841F08041C1603220FDF714F9D4
:103B8000002010BDD0F8002822F4FE62C0F8002802
:103B9000D0F800284FF4FE6303EA01110A43C0F88D
:103BA0000028002070470000022A3ED1264A274BF9
:103BB0000A449A4201D20F2138E0254A254B0A4493
:103BC0009A4201D20E2131E0234A244B0A449A4200
:103BD00001D20D212AE0224A224B0A449A4201D204
:103BE0000C2123E0204A214B0A449A4201D20B21A6
:103BF0001CE01F4A1F4B0A449A4201D20A2115E0D9
:103C00001D4A1E4B0A449A420FD31D4A1D4B0A44BB
:103C10009A4201D2082109E01B4A11441B4A9142F1
:103C200001D2072102E0062100E00921C26822F446
:103C30007052C260C2684FF4705303EA81210A4394
:103C4000C260002070470000405327FF00350C0081
:103C5000401E1BFF40420F0000DC0BFF804F120094
:103C6000808CF9FE20D6130060B6E5FE60E31600F6
:103C700000D3CEFE40771B00C05BB3FEC091210095
:103C800000CA91FE20753800E05459FEE09C4100C6
:103C900010B5029C64B9DB1C9C0800EB02300023C9
:103CA00000F5805002E004C902605B1CA342FAD315
:103CB000002010BDFEE70907090E002804DB00F113
:103CC000E02080F80014704700F00F0000F1E020C1
:103CD00080F8141D704702E008C8121F08C1002AAE
:103CE000FAD170477047002001E001C1121F002A7D
:103CF000FBD1704710B5002821D0114B0022001FC6
:103D0000196803E0814203D80A4649680029F9D1BD
:103D100052B11368841A9C4204D1006818441060A0
:103D2000104602E0506000E0186039B102680B1ADA
:103D3000934203D10B681A4402604968416010BD88
:103D40007801002008B5FDF723F9FEF73FFCFEF7E8
:103D5000E1FA1B480024016841F480010160006819
:103D6000224600F48000009021463820FDF770F9CB
:103D70003820FDF75FF9FEF79DFAFEF711FBFEF71D
:103D800039FB104900204FF4CD7200BF41F82040AC
:103D9000401C9042FADB0B484038FEF739F90949DC
:103DA0004FF4C872A1F18800FCF70CFE042206490A
:103DB0000648FEF77EFE0A20FCF7F6FFF6E7000055
:103DC000303802400802002000000020D008002007
:103DD000F0B50B30154D20F007010024144A0FE018
:103DE00003688B420BD38B4205D95E1A4318476890
:103DF000C3E9006700E04368136002C004E0021DED
:103E000010680028ECD12046002802D1286808B1AB
:103E10000020F0BD064A07481060074A121A22F037
:103E20000702C0E9002401202860D7E77C010020B8
:103E3000780100207C110020781300200006101665
:103E4000000610160000000000000000010203043C
:103E500006070809743E00080000002080010000E9
:103E6000DC020008483F000880010020F81500002F
:103E7000E63C0008C11321281B0851041A5D041AEE
:103E800085041AAD041A01041A2D04170403090449
:103E900012013202164083042B572602010203014D
:103EA000031A1A03191F1182105324F413892A1BB1
:103EB0000839041AD904819A2D0C811A71141A65D3
:103EC000041A7D041A5904140902221301011DE089
:103ED00032090459140301021509211101140122A8
:103EE0004A160705810304220A091F240A21072410
:103EF00029486912314B0A06F429CC100A05010938
:103F000002A1010901A110080509190129031518C9
:103F10000F25019503750181029501750581012029
:103F2000281730093109381581257F7508950381D7
:103F300006C0093C05FF090129A00E75019502B1D3
:083F40002275069501B101C0D4
:040000050800019955
:00000001FF
