:020000040800F2
:10000000B80B0020AD010008D31B0008971A0008A8
:10001000D11B00087D040008151F00080000000027
:10002000000000000000000000000000D71B0008D6
:100030003105000800000000D51B0008D91B00088E
:10004000C7010008C7010008C7010008C701000870
:10005000C7010008C7010008C7010008C701000860
:10006000C7010008C7010008C7010008C701000850
:10007000C7010008C7010008C7010008C701000840
:10008000C7010008C701000849030008000000007C
:10009000000000000000000000000000C701000890
:1000A000C7010008C7010008C7010008C701000810
:1000B000C7010008791C0008C7010008C701000833
:1000C000C7010008C7010008C7010008C7010008F0
:1000D000C7010008C7010008C701000800000000B0
:1000E000C7010008C7010008C701000800000000A0
:1000F000000000000000000000000000C701000830
:1001000000000000C7010008C7010008C70100087F
:1001100000000000000000000000000000000000DF
:1001200081040008C7010008C7010008C7010008D2
:10013000C7010008000000000000000000000000EF
:10014000000000000000000000000000C7010008DF
:10015000C7010008C7010008C7010008C70100085F
:10016000C7010008C70100080000000000000000EF
:10017000000000000000000000000000000000007F
:1001800000000000C701000800000000000000009F
:10019000C7010008C7010008DFF80CD000F07AF8AA
:1001A00000480047811F0008B80B00200648804720
:1001B00006480047FEE7FEE7FEE7FEE7FEE7FEE74C
:1001C000FEE7FEE7FEE7FEE75D1C00089901000878
:1001D0002DE9F05F0546002092469B46884606467C
:1001E000814640241BE0284641464746224600F00F
:1001F00041F853465A46C01A914110D31146184649
:10020000224600F028F82D1A67EB01084F462246D7
:100210000120002100F01FF817EB00094E41201EBD
:10022000A4F10104DFDC484631462A464346BDE8D6
:10023000F09FD2B201E000F8012B491EFBD27047BB
:100240000022F6E710B513460A4604461946FFF7A2
:10025000F0FF204610BD202A04DB203A00FA02F10C
:10026000002070479140C2F1200320FA03F31943A4
:1002700090407047202A04DB203A21FA02F0002146
:10028000704721FA02F3D040C2F1200291400843A6
:1002900019467047064C074D06E0E06840F0010340
:1002A00094E8070098471034AC42F6D3FFF778FF84
:1002B000342000085420000810B50146806B026C01
:1002C00012F0500F05D0026CD20626D500F03FFA8E
:1002D00010BD016C41F40071016401688A6812F07C
:1002E000405F17D1027EAAB9CA6A12F4700F02D019
:1002F0008A6852050ED44A6822F020024A60016CD6
:1003000021F480710164016CC90403D4016C41F0D3
:100310000101016400F0C2F910BD806BC26CBDE840
:1003200010400846104710B5806B40210164416CB5
:1003300041F00401416400F00AFA10BD10B5806B71
:1003400000F004FA10BD0000014800F001BA0000FE
:1003500024000020464910B54A6822F440324A6021
:100360004A6843681A434A6001684A6822F4807206
:100370004A6001684A68036942EA03224A600168E8
:100380004A6822F040724A6001684A6883681A43EA
:100390004A6001688A6822F400628A6001688A689B
:1003A000C3681A438A60816A6FF07062D142016843
:1003B0008A6822F070628A6001688A680CD0836A59
:1003C0001A438A6001688A6822F040528A60016894
:1003D0008A68C36A1A4301E022F040528A600168C9
:1003E0008A6822F002028A6001688A68037E42EA13
:1003F00043028A6090F82010002901684A680FD0F3
:1004000042F400624A6001684A6822F460424A602D
:1004100001684A68174C436A04EB43331A4301E00E
:1004200022F400624A600168CA6A22F47002CA6259
:100430000168CA6A838B104C04EB03531A43CA62E7
:1004400001688A6822F400728A6001688A6890F8FC
:10045000303042EA43228A6001688A6822F480626E
:100460008A6001688A68406942EA8020886010BD1D
:100470000023014000E0FFFF0000F0FFFEE7000066
:10048000014800F003BB0000540700200168182356
:10049000CAB2103AB2FBF3F2054B6FF30901032A1B
:1004A0009B5CC36500D9091D816508467047000043
:1004B0001420000810B5014600208B698A6A4FF0AD
:1004C000C07453B1B3F5005F15D072B1012A0CD0DE
:1004D000022A0AD0032A09D104E01AB1012A06D05F
:1004E000022A03D1C96AC90100D5012010BDC96A19
:1004F000A142FAD010BD002AF7D0012AF2D0022A78
:10050000F3D0032AF3D010BD30B50468256825F474
:1005100080252560046863608368402B036803D0EE
:1005200099600068C26030BD9A600068C16030BDEB
:10053000704770477047000078B50024009490F829
:100540003C20012A19D0012280F83C200A680723A8
:100550000568092A13D9EE680A3A02EB4202934071
:100560009E43EE600B788A680A3B03EB43039A4094
:100570000368DD682A43DA6010E0022078BD2E6946
:1005800002EB420293409E432E610B788A6803EB94
:1005900043039A4003681D692A431A614A681F236E
:1005A000072A13D205686E6B521E02EB820293403B
:1005B0009E436E630A8893B20A79521E02EB82024E
:1005C00093400268556B2B43536327E005680D2A5F
:1005D00012D22E6BD21F02EB820293409E432E63F7
:1005E0000B790A88DB1F92B203EB83039A400368FE
:1005F0001D6B2A431A6311E0EE6A0D3A02EB820288
:1006000093409E43EE620B790A880D3B92B203EB56
:1006100083039A400368DD6A2A43DA621B4B05684C
:10062000194A9D420AD10D68122D07D1556825F44B
:1006300000055560556845F48005556005689D4284
:100640001DD1134D0B68AB4201D0112B17D153684C
:1006500023F480035360536843F400035360096834
:10066000A9420CD10B490C4A0968B1FBF2F101EB2C
:100670008101490000E0491E00910029FBD180F86A
:100680003C40002078BD00000023014000200140D4
:10069000120000102000002040420F00002210B580
:1006A000244B1146104600BF53F83040224403EB60
:1006B000C004401C6468C8282144F5DBC823B2FB91
:1006C000F3F0B1FBF3F11C4CC4E9000104F10801A3
:1006D00001F040FC04F10D01606801F03BFC15489D
:1006E0000A23012215A1403801F078F911480A23A4
:1006F000042204F10801403801F070F90D480A2382
:10070000042204F10D01403801F068F94FF48071C2
:100710000B4800F0F7FB01284FF00A034FF00102ED
:1007200006D008A10348BDE81040403801F056B992
:1007300005A1F7E7EC000020000000202F000000DA
:100740000000024031000000300000007047704798
:1007500070B50446006801684268C1F34001C2F305
:10076000401251B34AB3216CC90603D4216C41F441
:1007700000712164816811F0405F17D1217EA9B911
:10078000C16A11F4700F02D0816849050ED4416826
:1007900021F020014160206C20F480702064206CE6
:1007A000C00403D4206C40F0010020642046FFF711
:1007B00075FF21686FF012000860206801684268C8
:1007C000C1F38001C2F3C01289B382B3216CC906A0
:1007D00003D4216C41F400512164816811F4401F5D
:1007E0001ED1816B11F4401F02D08168490517D4D6
:1007F0004168490514D4816811F0405F10D1217E11
:1008000071B9416821F080014160206C20F4805072
:100810002064206CC00503D4206C40F001002064EB
:100820002046FFF787FE21686FF00C000860206803
:100830000168426811F0010FC2F380120ED06AB154
:100840000068C0070AD0206C40F480302064204645
:1008500000F046F821686FF0010008602068016828
:100860004268C1F34011C2F3806200290DD0002A12
:100870000BD0616C41F0020161646FF020050560EE
:100880002046FFF764FF2068056070BD70B5040066
:100890004FF0000503D0206C002610B107E00120C6
:1008A00070BD204600F01EF8666484F83C60206C41
:1008B000C00610D4206C20F4885040F00200206460
:1008C0002046FFF747FD6664206C20F0020040F0F0
:1008D0000100206400E0012584F83C60284670BDDA
:1008E0007047000070B586B0064614216846FFF7D1
:1008F000A7FC2149306888423CD120480025016886
:1009000041F480710160006800F4807005901B481C
:100910001438016841F0010101600068694600F087
:10092000010005900C2000900320CDE9010514483A
:1009300000F01EFA144C1348C4E900050015A56028
:10094000C4E90350800060618000A0618011C4E9A7
:1009500007052046656200F069F908B1FFF7E9FD77
:10096000B463002211461220A66300F043FB12205C
:1009700000F032FB06B070BD002001404438024058
:10098000000002401064024054070020F8B50E46F3
:1009900000210446009190F83C00012807D0012076
:1009A00084F83C0020688368DB0702D011E0022055
:1009B000F8BD836843F0010383602D482D4B006828
:1009C000B0FBF3F000EB400000E0401E0090002878
:1009D000FBD120688368DB0748D0236C40F20165B7
:1009E000AB4343F4807323644068400505D5206C15
:1009F00020F4005040F480502064206CC00404D5E2
:100A0000606C20F00600606400E0616484F83C10D3
:100A1000A16B1A48184DC863A16B19480864A16BF3
:100A20001848C86421686FF0220008602068416897
:100A300041F0806141602068816841F4807181608B
:100A40002168134632464C31A06B00F059F96868B2
:100A5000C006206802D00C49884207D1816811F095
:100A6000405F03D1816841F0804181600020F8BD82
:100A70002000002040420F0000230140B90200087E
:100A80003D03000827030008002001402DE9F8433A
:100A900004464FF00009CDF8009063484FF416511A
:100AA000A56D0068B0FBF1F72E6894F85C10082083
:100AB00000FA01F131420FD021680A6852070BD5C4
:100AC0000A6822F004020A6094F85C108840A8606A
:100AD000606D40F00100606594F85C104FF0010813
:100AE00008FA01F0304208D021684969090604D5A6
:100AF000A860606D40F00200606594F85C1004200E
:100B00008840304208D021680968890704D5A86068
:100B1000606D40F00400606594F85C10102088401F
:100B2000304218D021680968090714D5A8602068E8
:100B30000168490304D50068000308D5A16C07E0EB
:100B40000168C90503D4016821F008010160216C26
:100B500009B12046884794F85C1020208840304234
:100B600031D021680968C9062DD5A86094F83500F0
:100B700005282068016806D0490347D500680003AE
:100B80001DD4616C1CE021F01601016020684169F0
:100B900021F080014161206C08B9A06C20B120686F
:100BA000016821F00801016094F85C103F20884042
:100BB000A86084F8349084F83580216D1FE0E16BE3
:100BC00009B120468847606D00282BD0606DC007B2
:100BD00014D0052084F835002068016821F0010157
:100BE00001600098401C0090B84203D8206800685B
:100BF000C007F6D184F8349084F83580E16C002980
:100C000010D001B02046BDE8F04308470168C9058F
:100C1000D5D4016821F01001016084F8349084F883
:100C20003580CCE7BDE8F883200000202DE9F041B5
:100C3000044600F071F906465CB1002584F8345092
:100C4000022084F835002068016821F0010101606C
:100C50000DE00120BDE8F08100F05EF9801B052861
:100C600005D920206065032084F83500F2E720686C
:100C70000068C007F0D12268116820480140D4E91B
:100C800001031843D4E90336334318436369184317
:100C9000A3691843E3691843236A18430843616A48
:100CA000042903D1D4E90B131943084310602068C9
:100CB0004069666A20F0070130460E430127042888
:100CC0000CD1A06A0643E06A40B12046FFF7F2FB70
:100CD00020B14020606584F83570BAE7206846612D
:100CE0002046FFF7D3FB94F85C203F2191408160C0
:100CF000656584F835700020ACE700003F8010F097
:100D00002DE9F0410446866D90F834000025012855
:100D10000DD0012084F8340094F835700020012FA4
:100D200007D084F8340002252846BDE8F08102206F
:100D3000FBE7022784F8357060652046FFF7E4FB87
:100D400094F85C103F208840B0602068016841F052
:100D500016010160206C20B12068016841F0080193
:100D600001602068016841F001010160DCE70000DA
:100D70002DE9F84F00224FF0010803254FF00F0E28
:100D80000B6808FA02F42340A34271D14E68012E89
:100D900005D0022E03D0112E01D0122E15D1866857
:100DA000570005FA07FC26EA0C06D1F80CC00CFA2D
:100DB00007FC4CEA060CC0F808C04668A6430C794C
:100DC000C4F30014944034434460C668570005FAE5
:100DD00007FC8C6826EA0C06BC403443C4604C68AF
:100DE000022C01D0122C13D1D40800EB8404A346AA
:100DF000D4F8209054074FEAD46A0EFA0AF629EA8A
:100E000006090E6906FA0AF646EA0906CBF82060DA
:100E100004680E7924EA0C0406F00306BE4026435B
:100E200006604C68E40056D52E4C266846F4804691
:100E30002660246822F0030604F4804400942A4CBF
:100E40003444A446D4F808489607370F0EFA07F63C
:100E5000B443264EB04201D1002615E0244EB042E4
:100E600001D1012610E0234EB04202D102260BE050
:100E700031E0214EB04201D1032605E01F4EB042C1
:100E800001D1042600E00726BE402643CCF80868BE
:100E90001B4E34684F689C43FF0300D51C433460ED
:100EA000174E361D34684F689C43BF0300D51C4362
:100EB0003460134E083634684F689C43FF0200D5F7
:100EC0001C4334600E4E0C3634684F689C43BF029E
:100ED00000D51C433460521C102AFFF451AFBDE80A
:100EE000F88F00004438024000300140000002400A
:100EF0000004024000080240000C024000100240C2
:100F0000003C01400069084000D0012070470AB150
:100F1000816170470904FBE7014880687047000061
:100F200014000020024881680278114481607047F3
:100F3000140000200B4810B5016841F400710160F5
:100F4000016841F480610160016841F480710160D1
:100F5000032000F06FF8002000F006F800F024F8FD
:100F6000002010BD003C024070B50D4D04464FF40A
:100F70007A712878B1FBF0F00A490968B1FBF0F00A
:100F800000F002FB48B9102C07D200222146501E67
:100F900000F030F800206C6070BD012070BD0000D2
:100FA00014000020200000200A4808B5016841F420
:100FB00080410160006800F4804000900548001FF7
:100FC000016841F080510160006800F0805000909D
:100FD00008BD000044380240002809DB00F01F0271
:100FE000012191404009800000F1E020C0F800118B
:100FF00070470000F0B40E4B1B680C46C3F302238D
:10100000C3F10705042D00D90425191D072901D2B4
:10101000002300E0DB1E012606FA05F1491E2140EF
:1010200099409E40761E16403143F0BC00F073BFDD
:101030000CED00E0064900F0070208684FF6FF03D8
:10104000184040EA0220034A10430860704700003D
:101050000CED00E00000FA052DE9F0470E46050012
:1010600065D0DFF81481D8F80000F7B200F00F0067
:10107000B04207D288F80070D8F8000000F00F00E6
:10108000B04254D128683D4C810712D5400703D5A2
:10109000206840F4E05020602878000703D52068DD
:1010A00040F4604020602068A96820F0F000084308
:1010B00020602878C0072DD0304968680839012899
:1010C00012D0022813D0032811D0096889070029FB
:1010D0002DDA216821F0030101432160FFF71CFF95
:1010E000814641F2883A0EE009688903EFE7096812
:1010F0008901ECE7FFF710FFA0EB0901514502D988
:101100000320BDE8F0872068696800F00C00B0EBB0
:10111000810FEFD1D8F80010404601F00F01B14225
:1011200007D90770006800F00F00B04201D001201D
:10113000E7E72878400705D52068E96820F4E05003
:10114000084320602878000706D52068296920F424
:10115000604040EAC100206000F038F82168084A89
:10116000C1F30311515CC840064908600648006895
:10117000FFF7FAFE0020C4E7003C024008380240B6
:101180001C20000820000020180000200448054909
:1011900000680968044AC1F38221515CC840704765
:1011A00020000020083802402C200008044805498F
:1011B00000680968044AC1F34231515CC840704775
:1011C00020000020083802402C200008154810B5E7
:1011D000006810F00C02144813D04110042A0FD0FC
:1011E000082A0ED10F4C241F2268236802F03F0208
:1011F0005B0207D52068C0F38810A0FB010106E060
:10120000084610BD2168C1F38811A1FB000100232D
:10121000FEF7DEFF2168C1F30141491C4900B0FB24
:10122000F1F010BD083802400024F4002DE9F84F19
:10123000040076D02078DFF838A3CE4DC00749D01F
:10124000DAF800105046C1F38101012908D0006886
:10125000C0F3810002280AD1281D0068400206D58B
:101260002868800336D560680028E2D032E06068E4
:10127000B0F5803F10D0B0F5A02F286810D020F432
:1012800080302860286820F4802028606068A0B141
:10129000FFF742FE06460CE0286840F48030F4E791
:1012A00040F480202860F7E7FFF736FE801B6428B3
:1012B00073D828688003F7D50CE0FFF72DFE0646AB
:1012C00005E000BFFFF728FE801B6428F0D82868DF
:1012D0008003F7D42078DFF8A08280074FF0000960
:1012E0003ED5DAF80010504611F00C0F09D0006816
:1012F000C0F3810002280BD19D48001F0068400206
:1013000006D42868800715D5E068012809D111E0C6
:10131000E068B8B10120C8F80000FFF7FDFD0646FF
:1013200005E020E1FFF7F8FD801B0228C0D82868FF
:101330008007F7D52868216920F0F80040EAC1004D
:1013400028600DE0C8F80090FFF7E6FD064604E0CF
:10135000FFF7E2FD801B02281FD828688007F7D41A
:101360002078000722D5824E844861696C3671B1BD
:1013700001210160FFF7D0FD074604E0FFF7CCFD37
:10138000C01B022809D830688007F7D50EE0C0F8E6
:101390000090FFF7C1FD074605E082E0FFF7BCFDC6
:1013A000C01B02287DD830688007F7D4207840071A
:1013B00068D5DFF8BCB100270BF1380BDBF8000073
:1013C000C0000BD4DBF8001041F08051CBF80010C6
:1013D000DBF80000012700F080500090684E306874
:1013E000C00510D4306840F480703060FFF794FD81
:1013F000009005E0FFF790FD0099401A022850D8B0
:101400003068C005F6D55A4EA068683601280FD05E
:101410000528306810D020F001003060306820F0DE
:1014200004003060A068B8B1FFF776FD00900FE0CF
:10143000306840F00100F4E740F004003060F7E766
:10144000FFF76AFD0099411A41F28830814266D85F
:1014500030688007F4D50EE0FFF75EFD009007E0EE
:10146000FFF75AFD0099411A41F28830814256D85F
:1014700030688007F4D42FB1DBF8001021F08051E0
:10148000CBF80010A069D0B3DAF800205146C2F3BF
:101490008102022A4AD00228484607D0C8F86000D4
:1014A00000E03CE0FFF738FD04463BE04746C8F863
:1014B0006000FFF731FD064605E000BFFFF72CFD99
:1014C000801B02282BD828688001F7D4D4E90701B3
:1014D0000843A16A2B4A490802EB0141626A41EACA
:1014E0008211084394F82C1040EA01612048001F43
:1014F000016001203866FFF70FFD044605E034E087
:10150000FFF70AFD001B022809D828688001F7D5DB
:101510002BE000BFFFF700FD001B022802D90320CB
:10152000BDE8F88F28688001F4D41EE00128F7D0C8
:101530000868E26900F48001914214D1226A00F047
:101540003F0191420FD147F6C071626A014091425A
:1015500009D1A26A00F44031914204D1E16A00F05D
:101560007060884201D00120DAE70020D8E700004F
:10157000083802400038024000004742800E4742CF
:10158000007000400000FFFF10B5401EB0F1807FEA
:1015900001D3012010BD4FF0E02460610F216017DE
:1015A00000F0B9FC0020A06107202061002010BDE0
:1015B0007047704770B590F83C20012A2CD0012468
:1015C00080F83C40022280F83D2003685A689D68FC
:1015D00022F070060A6832435A60104B02689A4241
:1015E0000ED0B2F1804F0BD00D4B9A4208D00D4B6C
:1015F0009A4205D00C4B9A4202D00C4B9A4204D12D
:10160000496825F080031943916080F83D4000212E
:1016100080F83C10084670BD022070BD00000140FB
:101620000004004000080040000C00400040014061
:1016300010B5040003D094F83D0010B107E001207C
:1016400010BD002084F83C00204600F00DF8022078
:1016500084F83D00211D206800F014FB012084F86F
:101660003D00002010BD000008B500680B4988420D
:1016700012D10B48016841F00201016000680022AC
:1016800000F00200009011461D20FFF7B3FCBDE8FA
:1016900008401D20FFF7A0BC08BD0000000400406A
:1016A00040380240022180F83D1001688A6802F04B
:1016B0000702062A03D00A6842F001020A600121EB
:1016C00080F83D100020704770B5044690F83C004B
:1016D000012817D0012584F83C50022084F83D00F1
:1016E0002068826822F0770222F47F4282600868D4
:1016F000502830D00DDC20284DD005DC98B31028C0
:101700003BD148E0022070BD302844D0402834D17D
:1017100039E0602828D0702806D0B0F5805F2CD042
:10172000B0F5005F29D10AE0CB68D1E9012120683A
:1017300000F0F4FA2068816841F0770109E0CB6895
:10174000D1E90121206800F0E9FA2068816841F4BC
:101750008041816011E0CA684968206800F0F0FAB1
:101760005021206807E016E0CA684968206800F048
:10177000F8FA6021206800F0DBFA84F83D50002080
:1017800084F83C0070BDCA684968206800F0D8FA47
:1017900040212068EFE7226801461046EBE77047DA
:1017A00070B50446006801694FF00005C943890718
:1017B00015D4C168C943890711D4E91E016101200C
:1017C0002077206880698007204602D0FFF7E7FF76
:1017D00004E000F098F8204600F096F8257720689D
:1017E0000169C943490717D4C168C943490713D4DC
:1017F0006FF004010161022020772068806910F4F5
:10180000407F204602D0FFF7CAFF04E000F07BF8DB
:10181000204600F079F8257720680169C943090757
:1018200016D4C168C943090712D46FF008010161D9
:10183000042020772068C0698007204602D0FFF787
:10184000AEFF04E000F05FF8204600F05DF8257779
:1018500020680169C943C90617D4C168C943C906CC
:1018600013D46FF010010161082020772068C0694F
:1018700010F4407F204602D0FFF791FF04E000F013
:1018800042F8204600F040F8257720680169C943F6
:10189000C90708D1C168C943C90704D1891E0161BC
:1018A000204600F032F820680169C943090609D4CE
:1018B000C168C943090605D46FF080010161204663
:1018C000FFF776FE20680169C943490609D4C1685B
:1018D000C943490605D46FF040010161204600F07C
:1018E00015F820680169C94389060BD4C168C9434A
:1018F000890607D46FF0200101612046BDE87040E1
:10190000FFF757BE70BD704770477047704770B59E
:10191000040004D094F83900002510B106E001203D
:1019200070BD84F83850204600F022F8242084F856
:1019300039002068C16821F40051C160204600F0E0
:1019400023FA2068016921F490410161206841690E
:1019500021F02A0141612068C16841F40051C16051
:10196000E563202084F8390084F83A00002070BD37
:1019700010B586B0044614216846FEF761FC144990
:101980002068884221D113480021026842F01002E9
:101990000260006800F0100005900E4814380268DC
:1019A00042F001020260006800F0010005904FF46F
:1019B000044000900220CDE901010320039007209C
:1019C000049069460448FFF7D3F906B010BD000043
:1019D0000010014044380240000002402DE9F84365
:1019E000044690F839001F4616460D46202850D16F
:1019F000B5B1AEB194F8380001284AD0012084F87E
:101A000038004FF00008C4F83C80212084F83900E9
:101A1000FFF782FAA6848146E68484F8388026E0BF
:101A20000120BDE8F883E08C401EE084A0684B46AE
:101A3000B0F5805F4FF000024FF080012046009724
:101A400003D000F035FAE8B90DE000F031FAC8B97A
:101A500028882168C0F308004860206908B16D1C1F
:101A600005E0AD1C03E0216815F8010B4860E08C2F
:101A70000028D8D14B46002240212046009700F094
:101A800017FA08B10320CCE7202084F839000020A1
:101A9000C7E70220C5E7FEE77FB50024164800949B
:101AA0000194029413490394016001254FF480319D
:101AB0000561C0E90114047680F820400903C16281
:101AC0000226C6614910C460816280F830504561C9
:101AD000FEF7DCFE0096CDE9015469460648FEF7A4
:101AE0002BFD0320CDE9000669460348FEF724FDDF
:101AF0007FBD0000002001402400002070B586B0AA
:101B000014216846FEF79CFB19480024016841F047
:101B100080010160016801F080010591016841F0D8
:101B200001010160016801F001010591016841F0C6
:101B30000801016000680F4E00F008004FF40055E6
:101B40000590002229463046FFF7E1F9009501256E
:101B5000CDE90154694630460394FFF709F928029C
:101B60008DE8310069460448FFF702F906B070BD00
:101B700030380240000C02400000024010B586B030
:101B800000241248009401940294039404940E4992
:101B9000059401606321C0E901143121C0E90314F7
:101BA00080218161FFF744FD4FF480500090694629
:101BB0000648FFF789FD2020CDE9040404A9034865
:101BC000FFF7F8FC06B010BD000400406C000020D8
:101BD000FEE7704770477047FFF7A4B930B593B080
:101BE00030216846FEF72CFB14210CA8FEF728FBD9
:101BF00018480025016841F080510160006800F03C
:101C0000805011901448016841F44041016000681F
:101C1000022400F440401190012003901020049011
:101C2000009406940820CDE907506420CDE909040A
:101C300004200B906846FFF7F9FA0CA90F2081E801
:101C40003100E002CDE90F0503210CA8FFF704FAEB
:101C500013B030BD403802400070004005480168B4
:101C600041F47001016003494FF000608039086061
:101C70007047000088ED00E00148FFF791BD0000CB
:101C80006C000020F0B502681D4B1E4C9F031E4DDA
:101C90001E4E984207D0B84205D0A04203D0A842B9
:101CA00001D0B04204D122F0700C4A6842EA0C0222
:101CB000984210D0B8420ED0A0420CD0A8420AD010
:101CC000B04208D0124CA04205D0124CA04202D023
:101CD000114CA04203D122F44074CA6822434C69DB
:101CE00022F08002224302608A68C2620A6882622D
:101CF000984201D10969016301214161F0BD0000F1
:101D0000000001400004004000080040000C0040BA
:101D100000400140004401400048014010B5846883
:101D200042EA032224F47F440A432243826010BD26
:101D3000826822F070020A4342F007018160704716
:101D400010B5036A046A24F001040462846924F073
:101D5000F00444EA021423F00A020A438461026296
:101D600010BD10B5036A23F0100303628369046A8F
:101D700023F4704343EA023224F0A00343EA011142
:101D80008261016210BD00002DE9F0410446006847
:101D90000169E26821F44051114301612169A068A1
:101DA000E26908436169114308432168CA6849F23E
:101DB0000C639A430243CA6020684169A26921F416
:101DC000407111434161E069192764253226B0F55D
:101DD000004F354A354920684FF0000806D0884248
:101DE00001D0904236D1FFF7E1F935E0884201D0C9
:101DF000904202D1FFF7DAF901E0FFF7C7F9616815
:101E00004A18A0FB070148EB0803FEF7E1F9014679
:101E1000B0FBF5F00201B1FBF5F06FF01803584389
:101E200001EB800006EBC000B0FBF5F000F0F8001D
:101E300002EB4002B1FBF5F0584301EB800006EBEA
:101E4000C000B0FBF5F000F0070021681044886086
:101E5000BDE8F081FFF79AF961688B0F8A00A0FB5B
:101E60000701FEF7B5F90146B0FBF5F06FF0180277
:101E7000504301EB800006EB0010B0FBF5F000F0E2
:101E8000F002B1FBF5F002EB0012B1FBF5F06FF0E0
:101E90001803584301EB800006EB0010B0FBF5F08F
:101EA00000F00F00D1E700000014014000100140D5
:101EB0002DE9F041984617460E460446069D1DE062
:101EC000681C1BD02DB1FFF727F8A0EB0800A84233
:101ED00014D92068C16821F4D071C16020684169BB
:101EE00021F001014161202084F8390084F83A0092
:101EF000002084F838000320BDE8F08120680068E5
:101F000036EA000004D00020B842D9D00020F3E720
:101F10000120F9E7FEE70907090E002804DB00F1BC
:101F2000E02080F80014704700F00F0000F1E0207E
:101F300080F8141D704702E008C8121F08C1002A6B
:101F4000FAD170477047002001E001C1121F002A3A
:101F5000FBD1704710B5002213468B54521C052A42
:101F6000FBDB03225FF00A04B0FBF4F304FB130372
:101F7000B0FBF4F030338B54521EF5D510BD000089
:101F800008B5FEF7D7FFFFF729FEFFF7B7FD1E489C
:101F90000024016841F4800101600068224600F4D9
:101FA0008000009021463820FFF724F83820FFF702
:101FB00013F8FFF771FDFFF7E1FD154813490160C4
:101FC0004FF4E131C0E901140C21C460C0E90441BF
:101FD0008461C461FFF79BFC0D49002040314FF440
:101FE000CD7200BF41F82040401C9042FADB084807
:101FF0004038FFF757FB06494FF4C8724031A1F152
:10200000C800FEF7C3FCFEE7303802400010014074
:10201000AC0000200006101600061016000000009C
:102020000000000001020304060708090000000088
:1020300001020304542000080000002024000000D6
:10204000361F00087820000824000020940B0000B0
:10205000461F000800000000000000000000000013
:10206000000000000000000001000000100000005F
:08207000000000000024F40050
:040000050800019955
:00000001FF
